:100000000C942A000C9461000C9447000C94470057
:100010000C9447000C9447000C9447000C94470044
:100020000C9447000C9447000C9447000C94470034
:100030000C9447000C9447000C9447000C94470024
:100040000C9447000C9447000C9447000C94470014
:100050000C94470011241FBECFE5D8E0DEBFCDBF12
:1000600010E0A0E6B0E0E4E5F6E002C005900D92F5
:10007000A23DB107D9F720E0A2EDB0E001C01D928A
:10008000A33DB207E1F70E94BE010C9428030C9433
:10009000000080E487B987E886B9089597B1877032
:1000A000907E892B87B9369A349BFECF349A84B1DF
:1000B00095B10895BA98C29A08958827B299839500
:1000C00008958F938FB78F939F938091D20091E083
:1000D00089278093D2009F918F918FBF8F91189520
:1000E0008A98929A85B7826085BF85B78E7F85BFD3
:1000F0008BB780648BBF8FB780688FBF089587FFF1
:1001000017C0DE9A86FF16C0DD9A85FF15C0DC9AFF
:1001100084FF14C0DB9ADA9A85E08A95F1F7000033
:10012000DA9887EC90E00197F1F700C0000008959D
:10013000DE98E8CFDD98E9CFDC98EACFDB98EBCF0B
:10014000CF93DF930F92CDB7DEB78983611599F016
:10015000D99A89810E947F0089818295807F0E943F
:100160007F0087EC90E00197F1F700C000000F904E
:10017000DF91CF910895D998ECCF8AB38E678ABB6F
:100180008BB381788BBB2FEF80E792E021508040CA
:100190009040E1F700C0000080E30E947F008FE103
:1001A0009EE40197F1F700C0000080E30E947F0009
:1001B00087E592E00197F1F700C0000080E30E941C
:1001C0007F0080E20E947F0060E088E20E94A00041
:1001D00060E08CE00E94A00060E086E00E94A00049
:1001E00060E081E00E94A0008FE39FE10197F1F7BA
:1001F00000C00000089560E081E00E94A0008FE34D
:100200009FE10197F1F700C000000895811105C03A
:1002100080E8860F60E00C94A00080ECFACF61E0EB
:100220000C94A000CF93DF93EC018881811103C06F
:10023000DF91CF91089521960E940F01F6CFCF93C1
:10024000DF9300D000D000D0CDB7DEB79C0140E0F6
:10025000EAE0F0E0892B59F480E30F900F900F90C3
:100260000F900F900F90DF91CF910C940F01C90167
:10027000BF010E94F202542F4F5FDE011196A50FBD
:10028000B11D805D8C93C9019B010A9780F780E0C6
:10029000952F981B891790F0FE013196E40FF11D00
:1002A0001082CE0101960E9412010F900F900F90C4
:1002B0000F900F900F90DF91CF910895DE0111966E
:1002C000A80FB11D2C91FE013196E90FF11D90810F
:1002D0009C9320838F5FDCCF87B3836087BB88B319
:1002E0008C7F88BB0895C09AC198089588B38C7F8D
:1002F00088BB089584B3876284BB85B3887D85BB42
:100300000895AD9A0895AD98089585B3876085BB2B
:10031000089585B3887F85BB0895811541F0A89A1B
:10032000611539F0A99A411531F0AA9A0895A89853
:10033000F7CFA998F8CFAA9808958D9A81E88FBD34
:100340008BE08EBD1BBC1ABC0895811105C08FB512
:100350008F778FBD959808959FB590689FBD282F82
:1003600030E0AFEFB0E00E94E30224E640E050E06E
:100370000E94060330E03BBD2ABD0895CDB7DEB72D
:1003800029970FB6F894DEBF0FBECDBF0E9449007B
:100390000E949D010E946C010E947A010E945A00F5
:1003A0000E9470000E94BD0060E080E00E94060193
:1003B00080E690E00E94120160E081E00E94060168
:1003C00080E690E00E9412012FEF87EA91E621502B
:1003D00080409040E1F700C000000E94FB0080E0F8
:1003E0000E944E00F82EE92E87E00E944E008C01FC
:1003F0000E945D00811519F10E9489010E9481010E
:1004000080E00E94A5010E94760160E080E00E94E9
:10041000060181E790E00E94120160E081E00E9405
:10042000060180E690E00E9412012FEF83EC99E034
:10043000215080409040E1F700C00000D0CF0E94E2
:1004400083012091D2002987211509F10E9485019D
:100450000E94810184E60E94A5010E94730160E070
:1004600080E00E94060182E890E00E94120160E0B4
:1004700081E00E94060183E990E00E9412018FEF63
:1004800093EC29E0815090402040E1F7D5CF9801CE
:10049000A8E8B3E10E94E30220E038E240E050E047
:1004A0000E94060329833A834B835C8309811A8166
:1004B0002F2D3E2D253982E0380710F024E932E057
:1004C000A4E6B0E00E94E30224E932E040E050E01C
:1004D0000E9406032D833E834F835887ED80FE8064
:1004E0000E9483010832110508F04CC00332110547
:1004F00008F04BC00E31110508F04FC099E10931E9
:10050000110508F040C080E00E94A5010E9476011C
:1005100020E1E216F10408F043C00E94850160E08A
:1005200080E00E940601298584EA90E0211102C042
:1005300085EB90E00E94120160E081E00E940601DC
:1005400086EC90E00E94120189819A810E941F012D
:1005500083E40E940F018CEC90E00E9412018D81D7
:100560009E810E941F0185E20E940F018DE690E0AE
:100570000E9412018FEF95EA2EE0815090402040BA
:10058000E1F75ACF94E6998702C02BE42987898541
:100590000E94A5010E947301BBCF82E38987F7CF38
:1005A00040E061E083E3E816F10430F097E4E916F7
:1005B000F10430F440E060E081E00E948D01AFCFB3
:1005C0000E948901ACCFA29FB001B39FC001A39F3D
:1005D000700D811D1124911DB29F700D811D11247C
:1005E000911D0895AA1BBB1B51E107C0AA1FBB1F89
:1005F000A617B70710F0A61BB70B881F991F5A95AF
:10060000A9F780959095BC01CD010895A1E21A2E1D
:10061000AA1BBB1BFD010DC0AA1FBB1FEE1FFF1FA6
:10062000A217B307E407F50720F0A21BB30BE40BF6
:10063000F50B661F771F881F991F1A9469F760953D
:100640007095809590959B01AC01BD01CF010895F7
:04065000F894FFCF4C
:100654002020202020202020202020202020202096
:1006640000437269746963616C20616C6572742102
:100674002000212120454D455247454E4359202114
:1006840021200050414E494320414354495641548E
:100694004544200046414E206973204F4E202020BF
:1006A400202020200046414E206973204F464620DA
:1006B40020202020200054656D703D00204C4452C1
:0206C4003D00F7
:00000001FF
