:100000000C942A000C9447000C9447000C94470071
:100010000C9447000C9447000C9447000C94470044
:100020000C9447000C9447000C9447000C94470034
:100030000C9447000C9447000C9447000C94470024
:100040000C9447000C9447000C9447000C94470014
:100050000C94470011241FBECFE5D4E0DEBFCDBF16
:1000600010E0A0E6B0E0E6EAF6E002C005900D92EE
:10007000A236B107D9F720E0A2E6B0E001C01D9298
:10008000A336B207E1F70E942B020C9451030C94A3
:100090000000CF93DF93CDB7DEB780916000813051
:1000A00031F48CE590E020E4FC0120831DC08091B8
:1000B0006000823031F48CE590E020E8FC01208380
:1000C00013C080916000833031F48CE590E020EC27
:1000D000FC01208309C080916000843029F48CE504
:1000E00090E02FEFFC0120830000DF91CF91089575
:1000F000CF93DF93CDB7DEB784E390E0FC0120819E
:1001000084E390E02360FC01208385E390E0FC0120
:10011000208185E390E02160FC01208385E390E06D
:10012000FC01208185E390E02D7FFC01208387E3A3
:1001300090E0FC01208187E390E02860FC012083AF
:1001400082E590E0FC0110828CE590E0FC011082D9
:1001500083E590E02AE6FC01208381E390E0FC0146
:10016000208181E390E0237FFC01208382E390E003
:10017000FC01208182E390E02C60FC0120830000E0
:10018000DF91CF910895CF93DF93CDB7DEB76C9712
:100190000FB6F894DEBF0FBECDBF80E390E0FC0148
:1001A0008081882F90E084709927009709F09CC087
:1001B00080E090E0A0EFB1E489839A83AB83BC83B5
:1001C00020E030E04AE755E469817A818B819C81A7
:1001D0000E94B402DC01CB018D839E83AF83B8877C
:1001E00020E030E040E85FE36D817E818F8198857B
:1001F0000E94340281152CF481E090E09A8789876F
:1002000040C020E03FEF4FE757E46D817E818F8152
:1002100098850E94AF02813054F120E030E040E246
:1002200051E469817A818B819C810E94B402DC0156
:10023000CB01BC01CD010E943902DC01CB019A87C0
:10024000898710C080E991E09C878B878B859C858E
:100250000197F1F79C878B87000089859A85019724
:100260009A87898789859A85009761F715C06D817E
:100270007E818F8198850E943902DC01CB019A87AB
:10028000898789859A859E878D878D859E8501972B
:10029000F1F79E878D87000080E390E0FC0180816C
:1002A000882F90E0847099270097F1F49091620074
:1002B00081E0911509F080E08093620080916200F6
:1002C000811519F00E94490004C08CE590E0FC0102
:1002D0001082000080E390E0FC018081882F90E094
:1002E000847099270097B1F380916200811509F419
:1002F000A2C080E390E0FC018081882F90E08870AC
:100300009927009709F097C080E090E0A0EFB1E452
:100310008F87988BA98BBA8B20E030E04AE755E4B1
:100320006F85788989899A890E94B402DC01CB01A2
:100330008B8B9C8BAD8BBE8B20E030E040E85FE385
:100340006B897C898D899E890E94340281152CF4E9
:1003500081E090E0988F8F8B40C020E03FEF4FE727
:1003600057E46B897C898D899E890E94AF02813018
:1003700054F120E030E040E251E46F8578898989CA
:100380009A890E94B402DC01CB01BC01CD010E941C
:100390003902DC01CB01988F8F8B10C080E991E08E
:1003A0009A8F898F898D9A8D0197F1F79A8F898F0E
:1003B00000008F89988D0197988F8F8B8F89988DEA
:1003C000009761F715C06B897C898D899E890E9491
:1003D0003902DC01CB01988F8F8B8F89988D9C8F90
:1003E0008B8F8B8D9C8D0197F1F79C8F8B8F0000ED
:1003F00080E390E0FC018081882F90E0887099274D
:100400000097C9F4809160008F5F809360008091B5
:100410006000853018F081E0809360000E94490000
:10042000000080E390E0FC018081882F90E08870DC
:1004300099270097B1F300006C960FB6F894DEBFD1
:100440000FBECDBFDF91CF910895CF93DF93CDB78E
:10045000DEB70000FECFCF93DF93CDB7DEB70E94AB
:1004600078000E94C300FDCF0E94620208F481E080
:1004700008950E948E0288F09F5798F0B92F99270F
:10048000B751B0F0E1F0660F771F881F991F1AF07F
:10049000BA95C9F714C0B13091F00E94A802B1E03A
:1004A00008950C94A802672F782F8827B85F39F039
:1004B000B93FCCF3869577956795B395D9F786F7CD
:1004C0000C944903990F0008550FAA0BE0E8FEEFC2
:1004D00016161706E807F907C0F012161306E40708
:1004E000F50798F0621B730B840B950B39F40A2601
:1004F00061F0232B242B252B21F408950A2609F4DF
:10050000A140A6958FEF811D811D089557FD90583C
:10051000440F551F59F05F3F71F04795880F97FBC7
:10052000991F61F09F3F79F0879508951216130681
:100530001406551FF2CF4695F1DF08C016161706B0
:100540001806991FF1CF86957105610508940895E5
:10055000E894BB2766277727CB0197F908950E9477
:10056000620208F48FEF08950E94C7020C943803CA
:100570000E942A0338F00E94310320F0952311F0E5
:100580000C9421030C94270311240C94A9020E94BB
:10059000860270F3959FC1F3950F50E0551F629F3F
:1005A000F001729FBB27F00DB11D639FAA27F00DCC
:1005B000B11DAA1F649F6627B00DA11D661F829FF3
:1005C0002227B00DA11D621F739FB00DA11D621FD8
:1005D000839FA00D611D221F749F3327A00D611DF5
:1005E000231F849F600D211D822F762F6A2F1124D7
:1005F0009F5750409AF0F1F088234AF0EE0FFF1F0A
:10060000BB1F661F771F881F91505040A9F79E3F60
:10061000510580F00C9421030C94A9025F3FE4F390
:10062000983ED4F3869577956795B795F795E795B6
:100630009F5FC1F7FE2B880F911D9695879597F9BF
:10064000089597F99F6780E870E060E008959FEF54
:1006500080EC089500240A94161617061806090659
:10066000089500240A941216130614060506089528
:10067000092E0394000C11F4882352F0BB0F40F4B0
:10068000BF2B11F460FF04C06F5F7F4F8F4F9F4FF0
:10069000089590958095709561957F4F8F4F9F4FEE
:0606A0000895F894FFCF5D
:0206A600010051
:00000001FF
